:020000040000FA
:0600000060EF07F01200A2
:020006001200E6
:0600080028EF00F01200D9
:02000E00A6B298
:04001000FED7120005
:020014000100E9
:060018001CEF00F01200D5
:02001E000200DE
:10002000DA0E000060000000210000001400000053
:080030008B000000020000003B
:08003800DACFE4FFE6529EA2BC
:1000400003D09E920F0EBC6EE552E5CFDAFF110091
:10005000DACFE4FFE2CFDAFFE9CFE4FFEACFE4FF53
:10006000D9CFE4FFDACFE4FF5AC0E4FF5BC0E4FF7E
:100070005CC0E4FF5DC0E4FFF6CFE4FFF7CFE4FF30
:10008000F8CFE4FFF5CFE4FFF3CFE4FFF4CFE4FFD4
:10009000FACFE4FFFBCFE4FF00EE4EF00C0EE804D5
:1000A00003E3EECFE4FFFBD7E652F2A42FD00F011B
:1000B00045B316D044910001716B010E726FB338D5
:1000C0000F0B0F0B00014B6F4B511F0BF36EF346E1
:1000D000F346830EC214F310C26EC280C28215D0E2
:1000E00045930001010E716F726F000187EC04F0FF
:1000F000290EE926000EEA22EECFE6FFEECFE6FF5C
:1001000038EC07F042E90F014481F2949EAC5BD0D9
:100110009E9C00017751C35C7851C45804E2C3CF60
:1001200077F0C4CF78F07551752B00015E6F000138
:100130006F5100015E5D39E377C049F078C04AF045
:100140000001D8904A334933FF0E4917030E4A176E
:100150007BDB5E510001495D00015F5100014A599E
:1001600004E2010E0001736F10D06EDB080E5E27F3
:10017000000E5F230001495100015E5D00014A51FC
:1001800000015F5903E20001736B746B00014B398E
:10019000F00BF30B4A11B36E49C0B2FF0001756B4F
:1001A000776B040E786F010E706F0001726B0F0198
:1001B000458F449144934583280EE66EA00EE66E6B
:1001C00038EC07F042E99EA61CD000010081030E26
:1001D000016F9E96C9CF76F08A7400A307D00251B2
:1001E000010A02E0010A01E00093022BF00E000177
:1001F000765D07E100010051020B03E10083026B11
:10020000C96AE55200EE59F00C0EE80403E3E5CFAD
:10021000EDFFFBD7E5CFFBFFE5CFFAFFE5CFF4FF1E
:10022000E5CFF3FFE5CFF5FFE5CFF8FFE5CFF7FF2B
:10023000E5CFF6FFE5CF5DF0E5CF5CF0E5CF5BF015
:10024000E5CF5AF0E5CFDAFFE5CFD9FFE5CFEAFFFA
:10025000E5CFE9FFE5CFDAFF1100D9CFE6FFE1CF27
:10026000D9FF82E948E8026A036A046A056A00EB7A
:10027000E6FF81D841E90001706B0001705102E195
:100280000400FBD7066A076A086A096AD890095011
:1002900008E6080E065C000E0758000E0858000E0F
:1002A000095835E20001706B0001705102E1040051
:1002B000FBD7E66A00EBE6FFB6D842E9F3CF4EF093
:1002C000F4CF4FF0FF0E00014E17030E00014F1741
:1002D0000001506B516BD950020FE96EDACFEAFF83
:1002E00000014E51EE2600014F51EE220001505107
:1002F000EE2200015151EE22D950060FE96EDACFFD
:10030000EAFFEE2A000EEE22EE22EE22BFD702EB2B
:100310004EF003EB4FF004EB50F005EB51F0030E01
:100320000001D890513350334F334E33E806F9E192
:10033000EA6A0034FE0BE96EEA36090EE926000E81
:10034000EA224EC0EEFF4FC0EDFFEA6A0034FE0B1A
:10035000E96EEA36090EE926000EEA22EECF4EF0EB
:10036000EFCF4FF04EC0F3FF4FC0F4FF00D049E98C
:10037000E7CFD9FF120095DA82E90001706B705166
:10038000FEE00038F00BB36EB26A706B7051FEE0A5
:10039000BAD287DA83E90F01456B900E446F010EE4
:1003A000436F01500E0A0FE0030A12E0010A06E053
:1003B000070A0EE137DAEE6AFA0E0ED033DA670E6C
:1003C000EE6EF00E09D02EDA4F0EEE6EF40E04D063
:1003D00029DAE80EEE6EFD0EED6E020E015C06E10E
:1003E000020E436F1FDAF30EEE6EED6838819280D5
:1003F00038839282C08EC70EC0143809C06EF80EC2
:10040000C0140609C06EC194C192830EC2140009C3
:10041000C26EC2809D8CB190B182B36AB26A000E86
:10042000F36EF46A70D23DDA83E90001705157E04F
:10043000B2CF4CF0B3CF4DF0005005E14FDA4EC0D3
:10044000F3FFF46E52D04ADA00014F6F3DDAEECF7F
:1004500050F0EFCF51F0FF0E5017030E51175051CF
:100460004E5D51514F5926E22FDAEECF4EF0EFCFCD
:100470004FF0FF0E4E17030E4F17FF0E00014C15E5
:100480000001506F030E00014D150001516F5051D6
:100490004E5D0001796F000151514F5900017A6F93
:1004A000005008E07951FF08000E7A5503E2010E72
:1004B000796F7A6B0001791D8B6E7D517E1106E19B
:1004C000005004E079C07DF07AC07EF079C07BF006
:1004D0007AC07CF079C0F3FF7AC0F4FF06D07B1DB0
:1004E0008B6E7BC0F3FF7CC0F4FF0DD2DAD982E9BA
:1004F00042E8026A036A080E035C0EE2010E03EB97
:10050000F3FF035204E0D890E836F306FCE1001450
:1005100001E0022A032AEFD7025043E9E7CFD9FFCF
:100520001200BFD985E944E80568066880EB07F04A
:1005300081EB08F007EB4EF008EB4FF00706000EDA
:10054000085A00014E514F1147E0FF0E05144F6B42
:100550004F6F4E6B260E506F090E516F000E526F8B
:10056000020EE66EE66AE66A06EB58F0596B02EB9D
:10057000E9FF03EBEAFF022A000E0322EF505819AD
:10058000566F59C057F0FF0E5617000E571756C03A
:10059000E6FF57C0E6FFE66A93EC05F0E552E5CFCB
:1005A00055F0E5CF54F0E7CF53F0000150515325FB
:1005B000F36E51515421F46E52515521F86EF4CF1F
:1005C000F7FFF3CFF6FF0900F5504E19056E0A004C
:1005D000F5504F19066EAED705EBF3FF06EBF4FFAF
:1005E00045E9E7CFD9FF12005CD983E947E800016C
:1005F000626B636B646B656B666B676B686B696B77
:10060000036A046A800E035C000E04585EE24ED951
:10061000EF5000017F257F6F000E8021806F46D94B
:10062000EF50056E05EBE6FF2DD900016227F4506F
:10063000632307EC00F003EBE6FF04EBE6FF1FEC9F
:1006400007F042E9066E06EBE6FF1CD900016427BD
:10065000F450652307EC00F0EFD84EC0E6FFE66EDD
:100660001FEC07F042E9076E055006180710076EE9
:1006700007EBE6FF07D900016627F450672316D978
:10068000EFCF4EF0071C00014E15E66E16D9E5526D
:10069000E750EF6E12D9EFCFE6FFF4D800016827DC
:1006A000F4506923015009E1F3D807EBE6FFC4D801
:1006B0001ED903D9EFCFE6FF05D0EAD8E66ABCD849
:1006C00016D9E66AB9D8CFD89DD7800EE66EE66A0D
:1006D000000EE66E010E0FD9005007E0800EE66EA8
:1006E000E66A800EE66E010E06D9015003E00001B5
:1006F000606B616B600E086E000E096E036A046A1F
:100700000A0E035C000E045812E207EC00F008EB3E
:10071000E9FF09EBEAFF082A000E0922EFCFE6FF06
:100720008BD8800E4E27000E4F239DD8E9D760C08E
:10073000F3FF61C0F4FF48E9E7CFD9FF1200D9CF3A
:10074000E6FFE1CFD9FF81E944E892680F01389BC9
:1007500093686168F19E946A0F013A6B8B68720E20
:10076000D36EC00E9B6E606A9F0EE66EEAEC06F0DA
:1007700041E9280EE66EA00EE66E38EC07F042E97D
:10078000BC0EE66E05EC07F041E99F920F0EBC6EC1
:100790000F01D00E426F0F01E00E416F0F01100EDE
:1007A000406F9294928A94869488949AE66AE66A54
:1007B000040EE66EA2EC06F043E99E96D08EF28E11
:1007C000E66AE66A11DF42E9F3CFE6FFF4CFE6FF1F
:1007D000CAEC06F042E9F28C0001086B08C0E6FFA3
:1007E0000B0EE66ED6DD42E908C0E6FF36DD41E9D4
:1007F000F350016EF450026E0001706B00017051F5
:1008000002E10400FBD7010EE66E08C0E6FF0BDE36
:1008100042E9F350036EF450046EEED745E9E7CF9A
:10082000D9FF1200EA6A0034FE0BE96EEA36290E9F
:10083000E926000EEA221200800E000103244E6F0A
:10084000000E04204F6F120062D8090EE926000E38
:10085000EA22EECF5EF0EFCF5FF00001200E5E5F88
:10086000000E5F5B1200800E4E27000E4F234EC01D
:10087000E6FF4FC0E6FF76EC06F043E9032A000EE0
:100880000422120033DE41E9F36EF46AF3501200E1
:1008900007EC00F005EBE6FF03EBE6FF04EBE6FFF9
:1008A0003DD0D9CFE6FFE1CFD9FF1200000E0324DF
:1008B000E96E010E0420EA6E1200800E0324E96E38
:1008C000010E0420EA6E1200EA6A0134FE0BE96EA2
:1008D000EA36090EE926000EEA221200FF0E000198
:1008E0004C1500014E6F030E00014D1512004EC055
:1008F000E6FFE66E13D0E66E14DE44E9F3CF60F057
:10090000F4CF61F0120041E9E7CFD9FF12004B515B
:10091000E96EEA6AD890E936EA36120076EC06F01B
:0609200043E907EF00F0BF
:0A09260000002110422063308440DD
:10093000A550C660E770088129914AA16BB18CC1AE
:10094000ADD1CEE1EFF13112100273325222B55225
:100950009442F772D662399318837BB35AA3BDD3FE
:100960009CC3FFF3DEE36224433420040114E664F5
:10097000C774A44485546AA54BB528850995EEE54E
:10098000CFF5ACC58DD55336722611163006D77605
:10099000F6669556B4465BB77AA719973887DFF79E
:1009A000FEE79DD7BCC7C448E5588668A7784008CD
:1009B000611802282338CCC9EDD98EE9AFF94889EE
:1009C00069990AA92BB9F55AD44AB77A966A711A65
:1009D000500A333A122AFDDBDCCBBFFB9EEB799B3E
:1009E000588B3BBB1AABA66C877CE44CC55C222CB5
:1009F000033C600C411CAEED8FFDECCDCDDD2AAD8E
:100A00000BBD688D499D977EB66ED55EF44E133E44
:100A1000322E511E700E9FFFBEEFDDDFFCCF1BBFDD
:100A20003AAF599F788F8891A981CAB1EBA10CD1B7
:100A30002DC14EF16FE18010A100C230E3200450BF
:100A4000254046706760B9839893FBA3DAB33DC332
:100A50001CD37FE35EF3B1029012F322D23235420F
:100A6000145277625672EAB5CBA5A89589856EF5C2
:100A70004FE52CD50DC5E234C324A014810466745F
:100A8000476424540544DBA7FAB79987B8975FE712
:100A90007EF71DC73CD7D326F2369106B0165766AF
:100AA0007676154634564CD96DC90EF92FE9C8999A
:100AB000E9898AB9ABA94458654806782768C018FF
:100AC000E1088238A3287DCB5CDB3FEB1EFBF98B72
:100AD000D89BBBAB9ABB754A545A376A167AF10A4F
:100AE000D01AB32A923A2EFD0FED6CDD4DCDAABD82
:100AF0008BADE89DC98D267C076C645C454CA23C9F
:100B0000832CE01CC10C1FEF3EFF5DCF7CDF9BAF51
:100B1000BABFD98FF89F176E367E554E745E932EEE
:060B2000B23ED10EF01EF2
:0A0B260046E8D9CFE6FFDACFE6FF7C
:100B3000E1CFD9FFE2CFDAFF8EE980EB06F081EB5F
:100B400007F082EB08F085EB0BF084EB0AF083EB07
:100B500009F003500602F450016EF350006E045089
:100B60000702F450036EF350026E04500602F35075
:100B70000126F4500222E86A032209500702F350CA
:100B80000126F4500222E86A032205500602F350BF
:100B90000226F450032205500702046AE86A042280
:100BA000F3500326F450042209500802F3500226A1
:100BB000F4500322056AE86A042205220A5008025A
:100BC000F3500326F4500422E86A05220B50080271
:100BD000F3500426F4500522E552E5CFDAFFE7CFC3
:100BE000D9FF49E9000C44E8D9CFE6FFDACFE6FFA8
:100BF000E1CFD9FFE2CFDAFF8AE980EB04F081EBA5
:100C000005F082EB06F002500402F450016EF3503E
:100C1000006E0350076E0502F450036EF350026E2F
:100C200007500402F3500126F4500222E86A03221E
:100C300006500502F3500126F4500222E86A03220E
:0E0C4000E552E5CFDAFFE7CFD9FF46E9000C19
:020C4E001E0E78
:100C5000F66E000EF76E000EF86E00010900F550FA
:100C6000866F0900F550876F03E1866701D03DD09C
:100C70000900F550816F0900F550826F0900F550A9
:100C8000836F09000900F550E96E0900F550EA6E1E
:100C9000090009000900F550846F0900F550856FBF
:100CA00009000900F6CF88F0F7CF89F0F8CF8AF075
:100CB00081C0F6FF82C0F7FF83C0F8FF00018453B4
:100CC00002E1855307E00900F550EE6E8407F8E273
:100CD0008507F9D788C0F6FF89C0F7FF8AC0F8FFFB
:0C0CE00000018607000E875BBFD71200E2
:040CEC00D9CFE6FF77
:100CF000DACFE6FFE1CFD9FFE2CFDAFF85E941E8BD
:100D0000056AFF0E0114A96E00EBA8FFA69EA69C23
:100D1000A684F250800B01E0010E056EF29E550E86
:100D2000A76EAA0EA76EA682A6B2FED70550E8B09F
:100D3000F28EE8A0F29EA69442E9E5CFDAFFE7CF73
:040D4000D9FF1200C5
:0C0D4400D9CFE6FFDACFE6FFE1CFD9FF00
:100D5000E2CFDAFF85E93F0EC716C66A0250C61217
:100D60000050C7120150030A09E0010A04E0020A18
:100D700006E1C78C04D0C78CC68801D0C688025053
:100D8000050A01E0010AC68A41E9E5CFDAFFE7CFAB
:040D9000D9FF120075
:0C0D9400FE0EE3CF8BF0FF0EE3CF8CF0DF
:100DA0001200350EE66E450EE66E8BC0E6FF8CC077
:100DB000E6FFF3EC05F0E552E5CF8CF0E7CF8BF0E2
:100DC00000018B2BE86A8C238C9F8BC0F3FF8CC0B7
:040DD000F4FF12001A
:0C0DD400D9CFE6FFDACFE6FFE1CFD9FF70
:100DE000E2CFDAFF83E97F0E0014D56ED76AD66AA8
:100DF000F29400AE02D0F28A01D0F29AD58E41E987
:0A0E0000E5CFDAFFE7CFD9FF1200BB
:060E0A00D9CFE6FFDACFAC
:100E1000E6FFE1CFD9FFE2CFDAFF83E9FB0E001452
:100E2000BA6EBC6A9E9200AE02D09D8201D09D92A5
:0E0E3000BA8441E9E5CFDAFFE7CFD9FF12001F
:020E3E00D9CF0A
:100E4000E6FFDACFE6FFE1CFD9FFE2CFDAFF84E9B0
:100E5000FF0E0014A96EA69CA69EA68000000000AE
:100E6000A85000D041E9E5CFDAFFE7CFD9FF120063
:100E7000D9CFE6FFDACFE6FFE1CFD9FFE2CFDAFF45
:100E800084E942E880EB04F081EB05F005EBD7FF45
:100E900004EBD6FF43E9E5CFDAFFE7CFD9FF120035
:100EA000000EF36E00EE00F0060E01D81200EA60AC
:100EB00002D0EE6AFCD7F350E9601200EE6AFCD76C
:100EC00015EE00F025EE00F0F86A27EC06F003ECD2
:0A0ED00000F09FEC03F0FBD71200C6
:060EDA0000000000000012
:100EE000000000000CFFFFFFFF02000000000000F8
:0B0EF0000000040000000000000000F3
:020000040030CA
:0100010039C5
:010002001FDE
:0100030028D4
:010005009961
:01000600C534
:010008000FE8
:01000900C036
:01000A000FE6
:01000B00E014
:01000C000FE4
:01000D0040B2
:00000001FF
